{
  "contractName": "VistiNFT",
  "abi": [
    {
      "inputs": [],
      "stateMutability": "nonpayable",
      "type": "constructor"
    },
    {
      "inputs": [],
      "name": "ERC721EnumerableForbiddenBatchMint",
      "type": "error"
    },
    {
      "inputs": [
        {
          "internalType": "address",
          "name": "sender",
          "type": "address"
        },
        {
          "internalType": "uint256",
          "name": "tokenId",
          "type": "uint256"
        },
        {
          "internalType": "address",
          "name": "owner",
          "type": "address"
        }
      ],
      "name": "ERC721IncorrectOwner",
      "type": "error"
    },
    {
      "inputs": [
        {
          "internalType": "address",
          "name": "operator",
          "type": "address"
        },
        {
          "internalType": "uint256",
          "name": "tokenId",
          "type": "uint256"
        }
      ],
      "name": "ERC721InsufficientApproval",
      "type": "error"
    },
    {
      "inputs": [
        {
          "internalType": "address",
          "name": "approver",
          "type": "address"
        }
      ],
      "name": "ERC721InvalidApprover",
      "type": "error"
    },
    {
      "inputs": [
        {
          "internalType": "address",
          "name": "operator",
          "type": "address"
        }
      ],
      "name": "ERC721InvalidOperator",
      "type": "error"
    },
    {
      "inputs": [
        {
          "internalType": "address",
          "name": "owner",
          "type": "address"
        }
      ],
      "name": "ERC721InvalidOwner",
      "type": "error"
    },
    {
      "inputs": [
        {
          "internalType": "address",
          "name": "receiver",
          "type": "address"
        }
      ],
      "name": "ERC721InvalidReceiver",
      "type": "error"
    },
    {
      "inputs": [
        {
          "internalType": "address",
          "name": "sender",
          "type": "address"
        }
      ],
      "name": "ERC721InvalidSender",
      "type": "error"
    },
    {
      "inputs": [
        {
          "internalType": "uint256",
          "name": "tokenId",
          "type": "uint256"
        }
      ],
      "name": "ERC721NonexistentToken",
      "type": "error"
    },
    {
      "inputs": [
        {
          "internalType": "address",
          "name": "owner",
          "type": "address"
        },
        {
          "internalType": "uint256",
          "name": "index",
          "type": "uint256"
        }
      ],
      "name": "ERC721OutOfBoundsIndex",
      "type": "error"
    },
    {
      "anonymous": false,
      "inputs": [
        {
          "indexed": true,
          "internalType": "address",
          "name": "owner",
          "type": "address"
        },
        {
          "indexed": true,
          "internalType": "address",
          "name": "approved",
          "type": "address"
        },
        {
          "indexed": true,
          "internalType": "uint256",
          "name": "tokenId",
          "type": "uint256"
        }
      ],
      "name": "Approval",
      "type": "event"
    },
    {
      "anonymous": false,
      "inputs": [
        {
          "indexed": true,
          "internalType": "address",
          "name": "owner",
          "type": "address"
        },
        {
          "indexed": true,
          "internalType": "address",
          "name": "operator",
          "type": "address"
        },
        {
          "indexed": false,
          "internalType": "bool",
          "name": "approved",
          "type": "bool"
        }
      ],
      "name": "ApprovalForAll",
      "type": "event"
    },
    {
      "anonymous": false,
      "inputs": [
        {
          "indexed": false,
          "internalType": "uint256",
          "name": "tokenId",
          "type": "uint256"
        }
      ],
      "name": "Created",
      "type": "event"
    },
    {
      "anonymous": false,
      "inputs": [
        {
          "indexed": true,
          "internalType": "address",
          "name": "previousOwner",
          "type": "address"
        },
        {
          "indexed": true,
          "internalType": "address",
          "name": "newOwner",
          "type": "address"
        }
      ],
      "name": "OwnershipTransferred",
      "type": "event"
    },
    {
      "anonymous": false,
      "inputs": [
        {
          "indexed": true,
          "internalType": "address",
          "name": "from",
          "type": "address"
        },
        {
          "indexed": true,
          "internalType": "address",
          "name": "to",
          "type": "address"
        },
        {
          "indexed": true,
          "internalType": "uint256",
          "name": "tokenId",
          "type": "uint256"
        }
      ],
      "name": "Transfer",
      "type": "event"
    },
    {
      "inputs": [
        {
          "internalType": "address",
          "name": "to",
          "type": "address"
        },
        {
          "internalType": "uint256",
          "name": "tokenId",
          "type": "uint256"
        }
      ],
      "name": "approve",
      "outputs": [],
      "stateMutability": "nonpayable",
      "type": "function"
    },
    {
      "inputs": [
        {
          "internalType": "address",
          "name": "owner",
          "type": "address"
        }
      ],
      "name": "balanceOf",
      "outputs": [
        {
          "internalType": "uint256",
          "name": "",
          "type": "uint256"
        }
      ],
      "stateMutability": "view",
      "type": "function",
      "constant": true
    },
    {
      "inputs": [
        {
          "internalType": "uint256",
          "name": "tokenId",
          "type": "uint256"
        }
      ],
      "name": "getApproved",
      "outputs": [
        {
          "internalType": "address",
          "name": "",
          "type": "address"
        }
      ],
      "stateMutability": "view",
      "type": "function",
      "constant": true
    },
    {
      "inputs": [
        {
          "internalType": "address",
          "name": "owner",
          "type": "address"
        },
        {
          "internalType": "address",
          "name": "operator",
          "type": "address"
        }
      ],
      "name": "isApprovedForAll",
      "outputs": [
        {
          "internalType": "bool",
          "name": "",
          "type": "bool"
        }
      ],
      "stateMutability": "view",
      "type": "function",
      "constant": true
    },
    {
      "inputs": [],
      "name": "name",
      "outputs": [
        {
          "internalType": "string",
          "name": "",
          "type": "string"
        }
      ],
      "stateMutability": "view",
      "type": "function",
      "constant": true
    },
    {
      "inputs": [],
      "name": "owner",
      "outputs": [
        {
          "internalType": "address",
          "name": "",
          "type": "address"
        }
      ],
      "stateMutability": "view",
      "type": "function",
      "constant": true
    },
    {
      "inputs": [
        {
          "internalType": "uint256",
          "name": "tokenId",
          "type": "uint256"
        }
      ],
      "name": "ownerOf",
      "outputs": [
        {
          "internalType": "address",
          "name": "",
          "type": "address"
        }
      ],
      "stateMutability": "view",
      "type": "function",
      "constant": true
    },
    {
      "inputs": [],
      "name": "renounceOwnership",
      "outputs": [],
      "stateMutability": "nonpayable",
      "type": "function"
    },
    {
      "inputs": [
        {
          "internalType": "address",
          "name": "from",
          "type": "address"
        },
        {
          "internalType": "address",
          "name": "to",
          "type": "address"
        },
        {
          "internalType": "uint256",
          "name": "tokenId",
          "type": "uint256"
        }
      ],
      "name": "safeTransferFrom",
      "outputs": [],
      "stateMutability": "nonpayable",
      "type": "function"
    },
    {
      "inputs": [
        {
          "internalType": "address",
          "name": "from",
          "type": "address"
        },
        {
          "internalType": "address",
          "name": "to",
          "type": "address"
        },
        {
          "internalType": "uint256",
          "name": "tokenId",
          "type": "uint256"
        },
        {
          "internalType": "bytes",
          "name": "data",
          "type": "bytes"
        }
      ],
      "name": "safeTransferFrom",
      "outputs": [],
      "stateMutability": "nonpayable",
      "type": "function"
    },
    {
      "inputs": [
        {
          "internalType": "address",
          "name": "operator",
          "type": "address"
        },
        {
          "internalType": "bool",
          "name": "approved",
          "type": "bool"
        }
      ],
      "name": "setApprovalForAll",
      "outputs": [],
      "stateMutability": "nonpayable",
      "type": "function"
    },
    {
      "inputs": [
        {
          "internalType": "bytes4",
          "name": "interfaceId",
          "type": "bytes4"
        }
      ],
      "name": "supportsInterface",
      "outputs": [
        {
          "internalType": "bool",
          "name": "",
          "type": "bool"
        }
      ],
      "stateMutability": "view",
      "type": "function",
      "constant": true
    },
    {
      "inputs": [],
      "name": "symbol",
      "outputs": [
        {
          "internalType": "string",
          "name": "",
          "type": "string"
        }
      ],
      "stateMutability": "view",
      "type": "function",
      "constant": true
    },
    {
      "inputs": [
        {
          "internalType": "uint256",
          "name": "index",
          "type": "uint256"
        }
      ],
      "name": "tokenByIndex",
      "outputs": [
        {
          "internalType": "uint256",
          "name": "",
          "type": "uint256"
        }
      ],
      "stateMutability": "view",
      "type": "function",
      "constant": true
    },
    {
      "inputs": [
        {
          "internalType": "address",
          "name": "owner",
          "type": "address"
        },
        {
          "internalType": "uint256",
          "name": "index",
          "type": "uint256"
        }
      ],
      "name": "tokenOfOwnerByIndex",
      "outputs": [
        {
          "internalType": "uint256",
          "name": "",
          "type": "uint256"
        }
      ],
      "stateMutability": "view",
      "type": "function",
      "constant": true
    },
    {
      "inputs": [],
      "name": "totalSupply",
      "outputs": [
        {
          "internalType": "uint256",
          "name": "",
          "type": "uint256"
        }
      ],
      "stateMutability": "view",
      "type": "function",
      "constant": true
    },
    {
      "inputs": [
        {
          "internalType": "address",
          "name": "from",
          "type": "address"
        },
        {
          "internalType": "address",
          "name": "to",
          "type": "address"
        },
        {
          "internalType": "uint256",
          "name": "tokenId",
          "type": "uint256"
        }
      ],
      "name": "transferFrom",
      "outputs": [],
      "stateMutability": "nonpayable",
      "type": "function"
    },
    {
      "inputs": [
        {
          "internalType": "address",
          "name": "newOwner",
          "type": "address"
        }
      ],
      "name": "transferOwnership",
      "outputs": [],
      "stateMutability": "nonpayable",
      "type": "function"
    },
    {
      "inputs": [],
      "name": "current",
      "outputs": [
        {
          "internalType": "uint256",
          "name": "",
          "type": "uint256"
        }
      ],
      "stateMutability": "view",
      "type": "function",
      "constant": true
    },
    {
      "inputs": [
        {
          "internalType": "uint256",
          "name": "tokenId",
          "type": "uint256"
        }
      ],
      "name": "tokenURI",
      "outputs": [
        {
          "internalType": "string",
          "name": "",
          "type": "string"
        }
      ],
      "stateMutability": "view",
      "type": "function",
      "constant": true
    },
    {
      "inputs": [
        {
          "internalType": "uint256",
          "name": "tokenId",
          "type": "uint256"
        },
        {
          "internalType": "string",
          "name": "_tokenURI",
          "type": "string"
        }
      ],
      "name": "setTokenURI",
      "outputs": [],
      "stateMutability": "nonpayable",
      "type": "function"
    },
    {
      "inputs": [
        {
          "internalType": "string",
          "name": "_tokenURI",
          "type": "string"
        }
      ],
      "name": "create",
      "outputs": [
        {
          "internalType": "uint256",
          "name": "",
          "type": "uint256"
        }
      ],
      "stateMutability": "nonpayable",
      "type": "function"
    },
    {
      "inputs": [
        {
          "internalType": "uint256",
          "name": "tokenId",
          "type": "uint256"
        }
      ],
      "name": "burn",
      "outputs": [],
      "stateMutability": "nonpayable",
      "type": "function"
    },
    {
      "inputs": [
        {
          "internalType": "address",
          "name": "to",
          "type": "address"
        },
        {
          "internalType": "uint256",
          "name": "tokenId",
          "type": "uint256"
        }
      ],
      "name": "transfer",
      "outputs": [],
      "stateMutability": "nonpayable",
      "type": "function"
    },
    {
      "inputs": [
        {
          "internalType": "address",
          "name": "owner",
          "type": "address"
        }
      ],
      "name": "tokensOfOwner",
      "outputs": [
        {
          "internalType": "uint256[]",
          "name": "",
          "type": "uint256[]"
        }
      ],
      "stateMutability": "view",
      "type": "function",
      "constant": true
    }
  ],
  "bytecode": "0x60806040523480156200001157600080fd5b506040518060400160405280600881526020017f56697374694e46540000000000000000000000000000000000000000000000008152506040518060400160405280600381526020017f565354000000000000000000000000000000000000000000000000000000000081525081600090816200008f919062000412565b508060019081620000a1919062000412565b505050620000c4620000b8620000ca60201b60201c565b620000d260201b60201c565b620004f9565b600033905090565b6000600a60009054906101000a900473ffffffffffffffffffffffffffffffffffffffff16905081600a60006101000a81548173ffffffffffffffffffffffffffffffffffffffff021916908373ffffffffffffffffffffffffffffffffffffffff1602179055508173ffffffffffffffffffffffffffffffffffffffff168173ffffffffffffffffffffffffffffffffffffffff167f8be0079c531659141344cd1fd0a4f28419497f9722a3daafe3b4186f6b6457e060405160405180910390a35050565b600081519050919050565b7f4e487b7100000000000000000000000000000000000000000000000000000000600052604160045260246000fd5b7f4e487b7100000000000000000000000000000000000000000000000000000000600052602260045260246000fd5b600060028204905060018216806200021a57607f821691505b60208210810362000230576200022f620001d2565b5b50919050565b60008190508160005260206000209050919050565b60006020601f8301049050919050565b600082821b905092915050565b6000600883026200029a7fffffffffffffffffffffffffffffffffffffffffffffffffffffffffffffffff826200025b565b620002a686836200025b565b95508019841693508086168417925050509392505050565b6000819050919050565b6000819050919050565b6000620002f3620002ed620002e784620002be565b620002c8565b620002be565b9050919050565b6000819050919050565b6200030f83620002d2565b620003276200031e82620002fa565b84845462000268565b825550505050565b600090565b6200033e6200032f565b6200034b81848462000304565b505050565b5b8181101562000373576200036760008262000334565b60018101905062000351565b5050565b601f821115620003c2576200038c8162000236565b62000397846200024b565b81016020851015620003a7578190505b620003bf620003b6856200024b565b83018262000350565b50505b505050565b600082821c905092915050565b6000620003e760001984600802620003c7565b1980831691505092915050565b6000620004028383620003d4565b9150826002028217905092915050565b6200041d8262000198565b67ffffffffffffffff811115620004395762000438620001a3565b5b62000445825462000201565b6200045282828562000377565b600060209050601f8311600181146200048a576000841562000475578287015190505b620004818582620003f4565b865550620004f1565b601f1984166200049a8662000236565b60005b82811015620004c4578489015182556001820191506020850194506020810190506200049d565b86831015620004e45784890151620004e0601f891682620003d4565b8355505b6001600288020188555050505b505050505050565b61342580620005096000396000f3fe608060405234801561001057600080fd5b50600436106101735760003560e01c806370a08231116100de578063a22cb46511610097578063b88d4fde11610071578063b88d4fde1461045c578063c87b56dd14610478578063e985e9c5146104a8578063f2fde38b146104d857610173565b8063a22cb465146103f4578063a9059cbb14610410578063b6a46b3b1461042c57610173565b806370a0823114610330578063715018a6146103605780638462151c1461036a5780638da5cb5b1461039a57806395d89b41146103b85780639fa6a6e3146103d657610173565b806323b872dd1161013057806323b872dd1461024c5780632f745c591461026857806342842e0e1461029857806342966c68146102b45780634f6ccce7146102d05780636352211e1461030057610173565b806301ffc9a71461017857806306fdde03146101a8578063081812fc146101c6578063095ea7b3146101f6578063162094c41461021257806318160ddd1461022e575b600080fd5b610192600480360381019061018d919061240b565b6104f4565b60405161019f9190612453565b60405180910390f35b6101b061056e565b6040516101bd91906124fe565b60405180910390f35b6101e060048036038101906101db9190612556565b610600565b6040516101ed91906125c4565b60405180910390f35b610210600480360381019061020b919061260b565b61061c565b005b61022c60048036038101906102279190612780565b610632565b005b61023661071b565b60405161024391906127eb565b60405180910390f35b61026660048036038101906102619190612806565b610728565b005b610282600480360381019061027d919061260b565b61082a565b60405161028f91906127eb565b60405180910390f35b6102b260048036038101906102ad9190612806565b6108d3565b005b6102ce60048036038101906102c99190612556565b6108f3565b005b6102ea60048036038101906102e59190612556565b6109e2565b6040516102f791906127eb565b60405180910390f35b61031a60048036038101906103159190612556565b610a58565b60405161032791906125c4565b60405180910390f35b61034a60048036038101906103459190612859565b610a6a565b60405161035791906127eb565b60405180910390f35b610368610b24565b005b610384600480360381019061037f9190612859565b610bac565b6040516103919190612944565b60405180910390f35b6103a2610c5a565b6040516103af91906125c4565b60405180910390f35b6103c0610c84565b6040516103cd91906124fe565b60405180910390f35b6103de610d16565b6040516103eb91906127eb565b60405180910390f35b61040e60048036038101906104099190612992565b610d27565b005b61042a6004803603810190610425919061260b565b610d3d565b005b610446600480360381019061044191906129d2565b610dc2565b60405161045391906127eb565b60405180910390f35b61047660048036038101906104719190612abc565b610eca565b005b610492600480360381019061048d9190612556565b610ee7565b60405161049f91906124fe565b60405180910390f35b6104c260048036038101906104bd9190612b3f565b610fd4565b6040516104cf9190612453565b60405180910390f35b6104f260048036038101906104ed9190612859565b611068565b005b60007f780e9d63000000000000000000000000000000000000000000000000000000007bffffffffffffffffffffffffffffffffffffffffffffffffffffffff1916827bffffffffffffffffffffffffffffffffffffffffffffffffffffffff1916148061056757506105668261115f565b5b9050919050565b60606000805461057d90612bae565b80601f01602080910402602001604051908101604052809291908181526020018280546105a990612bae565b80156105f65780601f106105cb576101008083540402835291602001916105f6565b820191906000526020600020905b8154815290600101906020018083116105d957829003601f168201915b5050505050905090565b600061060b82611241565b50610615826112c9565b9050919050565b61062e8282610629611306565b61130e565b5050565b61063a611306565b73ffffffffffffffffffffffffffffffffffffffff16610658610c5a565b73ffffffffffffffffffffffffffffffffffffffff16146106ae576040517f08c379a00000000000000000000000000000000000000000000000000000000081526004016106a590612c2b565b60405180910390fd5b6106b782611320565b6106f6576040517f08c379a00000000000000000000000000000000000000000000000000000000081526004016106ed90612cbd565b60405180910390fd5b80600c600084815260200190815260200160002090816107169190612e89565b505050565b6000600880549050905090565b600073ffffffffffffffffffffffffffffffffffffffff168273ffffffffffffffffffffffffffffffffffffffff160361079a5760006040517f64a0ae9200000000000000000000000000000000000000000000000000000000815260040161079191906125c4565b60405180910390fd5b60006107ae83836107a9611306565b61134b565b90508373ffffffffffffffffffffffffffffffffffffffff168173ffffffffffffffffffffffffffffffffffffffff1614610824578382826040517f64283d7b00000000000000000000000000000000000000000000000000000000815260040161081b93929190612f5b565b60405180910390fd5b50505050565b600061083583610a6a565b821061087a5782826040517fa57d13dc000000000000000000000000000000000000000000000000000000008152600401610871929190612f92565b60405180910390fd5b600660008473ffffffffffffffffffffffffffffffffffffffff1673ffffffffffffffffffffffffffffffffffffffff168152602001908152602001600020600083815260200190815260200160002054905092915050565b6108ee83838360405180602001604052806000815250610eca565b505050565b6108fb611306565b73ffffffffffffffffffffffffffffffffffffffff16610919610c5a565b73ffffffffffffffffffffffffffffffffffffffff161461096f576040517f08c379a000000000000000000000000000000000000000000000000000000000815260040161096690612c2b565b60405180910390fd5b61097881611320565b6109b7576040517f08c379a00000000000000000000000000000000000000000000000000000000081526004016109ae9061302d565b60405180910390fd5b600c600082815260200190815260200160002060006109d69190612342565b6109df81611468565b50565b60006109ec61071b565b8210610a32576000826040517fa57d13dc000000000000000000000000000000000000000000000000000000008152600401610a29929190612f92565b60405180910390fd5b60088281548110610a4657610a4561304d565b5b90600052602060002001549050919050565b6000610a6382611241565b9050919050565b60008073ffffffffffffffffffffffffffffffffffffffff168273ffffffffffffffffffffffffffffffffffffffff1603610add5760006040517f89c62b64000000000000000000000000000000000000000000000000000000008152600401610ad491906125c4565b60405180910390fd5b600360008373ffffffffffffffffffffffffffffffffffffffff1673ffffffffffffffffffffffffffffffffffffffff168152602001908152602001600020549050919050565b610b2c611306565b73ffffffffffffffffffffffffffffffffffffffff16610b4a610c5a565b73ffffffffffffffffffffffffffffffffffffffff1614610ba0576040517f08c379a0000000000000000000000000000000000000000000000000000000008152600401610b9790612c2b565b60405180910390fd5b610baa60006114ee565b565b60606000610bb983610a6a565b905060008167ffffffffffffffff811115610bd757610bd6612655565b5b604051908082528060200260200182016040528015610c055781602001602082028036833780820191505090505b50905060005b82811015610c4f57610c1d858261082a565b828281518110610c3057610c2f61304d565b5b6020026020010181815250508080610c47906130ab565b915050610c0b565b508092505050919050565b6000600a60009054906101000a900473ffffffffffffffffffffffffffffffffffffffff16905090565b606060018054610c9390612bae565b80601f0160208091040260200160405190810160405280929190818152602001828054610cbf90612bae565b8015610d0c5780601f10610ce157610100808354040283529160200191610d0c565b820191906000526020600020905b815481529060010190602001808311610cef57829003601f168201915b5050505050905090565b6000610d22600b6115b4565b905090565b610d39610d32611306565b83836115c2565b5050565b3373ffffffffffffffffffffffffffffffffffffffff16610d5d82610a58565b73ffffffffffffffffffffffffffffffffffffffff1614610db3576040517f08c379a0000000000000000000000000000000000000000000000000000000008152600401610daa90613165565b60405180910390fd5b610dbe3383836108d3565b5050565b6000610dcc611306565b73ffffffffffffffffffffffffffffffffffffffff16610dea610c5a565b73ffffffffffffffffffffffffffffffffffffffff1614610e40576040517f08c379a0000000000000000000000000000000000000000000000000000000008152600401610e3790612c2b565b60405180910390fd5b610e4a600b611731565b6000610e56600b6115b4565b9050610e69610e63610c5a565b82611747565b82600c60008381526020019081526020016000209081610e899190612e89565b507f06acbfb32bcf8383f3b0a768b70ac9ec234ea0f2d3b9c77fa6a2de69b919aad181604051610eb991906127eb565b60405180910390a180915050919050565b610ed5848484610728565b610ee184848484611765565b50505050565b6060610ef282611320565b610f31576040517f08c379a0000000000000000000000000000000000000000000000000000000008152600401610f28906131f7565b60405180910390fd5b600c60008381526020019081526020016000208054610f4f90612bae565b80601f0160208091040260200160405190810160405280929190818152602001828054610f7b90612bae565b8015610fc85780601f10610f9d57610100808354040283529160200191610fc8565b820191906000526020600020905b815481529060010190602001808311610fab57829003601f168201915b50505050509050919050565b6000600560008473ffffffffffffffffffffffffffffffffffffffff1673ffffffffffffffffffffffffffffffffffffffff16815260200190815260200160002060008373ffffffffffffffffffffffffffffffffffffffff1673ffffffffffffffffffffffffffffffffffffffff16815260200190815260200160002060009054906101000a900460ff16905092915050565b611070611306565b73ffffffffffffffffffffffffffffffffffffffff1661108e610c5a565b73ffffffffffffffffffffffffffffffffffffffff16146110e4576040517f08c379a00000000000000000000000000000000000000000000000000000000081526004016110db90612c2b565b60405180910390fd5b600073ffffffffffffffffffffffffffffffffffffffff168173ffffffffffffffffffffffffffffffffffffffff1603611153576040517f08c379a000000000000000000000000000000000000000000000000000000000815260040161114a90613289565b60405180910390fd5b61115c816114ee565b50565b60007f80ac58cd000000000000000000000000000000000000000000000000000000007bffffffffffffffffffffffffffffffffffffffffffffffffffffffff1916827bffffffffffffffffffffffffffffffffffffffffffffffffffffffff1916148061122a57507f5b5e139f000000000000000000000000000000000000000000000000000000007bffffffffffffffffffffffffffffffffffffffffffffffffffffffff1916827bffffffffffffffffffffffffffffffffffffffffffffffffffffffff1916145b8061123a57506112398261191c565b5b9050919050565b60008061124d83611986565b9050600073ffffffffffffffffffffffffffffffffffffffff168173ffffffffffffffffffffffffffffffffffffffff16036112c057826040517f7e2732890000000000000000000000000000000000000000000000000000000081526004016112b791906127eb565b60405180910390fd5b80915050919050565b60006004600083815260200190815260200160002060009054906101000a900473ffffffffffffffffffffffffffffffffffffffff169050919050565b600033905090565b61131b83838360016119c3565b505050565b600080600c6000848152602001908152602001600020805461134190612bae565b9050119050919050565b600080611359858585611b88565b9050600073ffffffffffffffffffffffffffffffffffffffff168173ffffffffffffffffffffffffffffffffffffffff160361139d5761139884611da2565b6113dc565b8473ffffffffffffffffffffffffffffffffffffffff168173ffffffffffffffffffffffffffffffffffffffff16146113db576113da8185611deb565b5b5b600073ffffffffffffffffffffffffffffffffffffffff168573ffffffffffffffffffffffffffffffffffffffff160361141e5761141984611f4c565b61145d565b8473ffffffffffffffffffffffffffffffffffffffff168173ffffffffffffffffffffffffffffffffffffffff161461145c5761145b858561201d565b5b5b809150509392505050565b6000611477600083600061134b565b9050600073ffffffffffffffffffffffffffffffffffffffff168173ffffffffffffffffffffffffffffffffffffffff16036114ea57816040517f7e2732890000000000000000000000000000000000000000000000000000000081526004016114e191906127eb565b60405180910390fd5b5050565b6000600a60009054906101000a900473ffffffffffffffffffffffffffffffffffffffff16905081600a60006101000a81548173ffffffffffffffffffffffffffffffffffffffff021916908373ffffffffffffffffffffffffffffffffffffffff1602179055508173ffffffffffffffffffffffffffffffffffffffff168173ffffffffffffffffffffffffffffffffffffffff167f8be0079c531659141344cd1fd0a4f28419497f9722a3daafe3b4186f6b6457e060405160405180910390a35050565b600081600001549050919050565b600073ffffffffffffffffffffffffffffffffffffffff168273ffffffffffffffffffffffffffffffffffffffff160361163357816040517f5b08ba1800000000000000000000000000000000000000000000000000000000815260040161162a91906125c4565b60405180910390fd5b80600560008573ffffffffffffffffffffffffffffffffffffffff1673ffffffffffffffffffffffffffffffffffffffff16815260200190815260200160002060008473ffffffffffffffffffffffffffffffffffffffff1673ffffffffffffffffffffffffffffffffffffffff16815260200190815260200160002060006101000a81548160ff0219169083151502179055508173ffffffffffffffffffffffffffffffffffffffff168373ffffffffffffffffffffffffffffffffffffffff167f17307eab39ab6107e8899845ad3d59bd9653f200f220920489ca2b5937696c31836040516117249190612453565b60405180910390a3505050565b6001816000016000828254019250508190555050565b6117618282604051806020016040528060008152506120a8565b5050565b60008373ffffffffffffffffffffffffffffffffffffffff163b1115611916578273ffffffffffffffffffffffffffffffffffffffff1663150b7a026117a9611306565b8685856040518563ffffffff1660e01b81526004016117cb94939291906132fe565b6020604051808303816000875af192505050801561180757506040513d601f19601f82011682018060405250810190611804919061335f565b60015b61188b573d8060008114611837576040519150601f19603f3d011682016040523d82523d6000602084013e61183c565b606091505b50600081510361188357836040517f64a0ae9200000000000000000000000000000000000000000000000000000000815260040161187a91906125c4565b60405180910390fd5b805181602001fd5b63150b7a0260e01b7bffffffffffffffffffffffffffffffffffffffffffffffffffffffff1916817bffffffffffffffffffffffffffffffffffffffffffffffffffffffff19161461191457836040517f64a0ae9200000000000000000000000000000000000000000000000000000000815260040161190b91906125c4565b60405180910390fd5b505b50505050565b60007f01ffc9a7000000000000000000000000000000000000000000000000000000007bffffffffffffffffffffffffffffffffffffffffffffffffffffffff1916827bffffffffffffffffffffffffffffffffffffffffffffffffffffffff1916149050919050565b60006002600083815260200190815260200160002060009054906101000a900473ffffffffffffffffffffffffffffffffffffffff169050919050565b80806119fc5750600073ffffffffffffffffffffffffffffffffffffffff168273ffffffffffffffffffffffffffffffffffffffff1614155b15611b30576000611a0c84611241565b9050600073ffffffffffffffffffffffffffffffffffffffff168373ffffffffffffffffffffffffffffffffffffffff1614158015611a7757508273ffffffffffffffffffffffffffffffffffffffff168173ffffffffffffffffffffffffffffffffffffffff1614155b8015611a8a5750611a888184610fd4565b155b15611acc57826040517fa9fbf51f000000000000000000000000000000000000000000000000000000008152600401611ac391906125c4565b60405180910390fd5b8115611b2e57838573ffffffffffffffffffffffffffffffffffffffff168273ffffffffffffffffffffffffffffffffffffffff167f8c5be1e5ebec7d5bd14f71427d1e84f3dd0314c0f7b2291e5b200ac8c7c3b92560405160405180910390a45b505b836004600085815260200190815260200160002060006101000a81548173ffffffffffffffffffffffffffffffffffffffff021916908373ffffffffffffffffffffffffffffffffffffffff16021790555050505050565b600080611b9484611986565b9050600073ffffffffffffffffffffffffffffffffffffffff168373ffffffffffffffffffffffffffffffffffffffff1614611bd657611bd58184866120c4565b5b600073ffffffffffffffffffffffffffffffffffffffff168173ffffffffffffffffffffffffffffffffffffffff1614611c6757611c186000856000806119c3565b6001600360008373ffffffffffffffffffffffffffffffffffffffff1673ffffffffffffffffffffffffffffffffffffffff168152602001908152602001600020600082825403925050819055505b600073ffffffffffffffffffffffffffffffffffffffff168573ffffffffffffffffffffffffffffffffffffffff1614611cea576001600360008773ffffffffffffffffffffffffffffffffffffffff1673ffffffffffffffffffffffffffffffffffffffff168152602001908152602001600020600082825401925050819055505b846002600086815260200190815260200160002060006101000a81548173ffffffffffffffffffffffffffffffffffffffff021916908373ffffffffffffffffffffffffffffffffffffffff160217905550838573ffffffffffffffffffffffffffffffffffffffff168273ffffffffffffffffffffffffffffffffffffffff167fddf252ad1be2c89b69c2b068fc378daa952ba7f163c4a11628f55a4df523b3ef60405160405180910390a4809150509392505050565b6008805490506009600083815260200190815260200160002081905550600881908060018154018082558091505060019003906000526020600020016000909190919091505550565b6000611df683610a6a565b9050600060076000848152602001908152602001600020549050818114611edb576000600660008673ffffffffffffffffffffffffffffffffffffffff1673ffffffffffffffffffffffffffffffffffffffff168152602001908152602001600020600084815260200190815260200160002054905080600660008773ffffffffffffffffffffffffffffffffffffffff1673ffffffffffffffffffffffffffffffffffffffff168152602001908152602001600020600084815260200190815260200160002081905550816007600083815260200190815260200160002081905550505b6007600084815260200190815260200160002060009055600660008573ffffffffffffffffffffffffffffffffffffffff1673ffffffffffffffffffffffffffffffffffffffff16815260200190815260200160002060008381526020019081526020016000206000905550505050565b60006001600880549050611f60919061338c565b9050600060096000848152602001908152602001600020549050600060088381548110611f9057611f8f61304d565b5b906000526020600020015490508060088381548110611fb257611fb161304d565b5b906000526020600020018190555081600960008381526020019081526020016000208190555060096000858152602001908152602001600020600090556008805480612001576120006133c0565b5b6001900381819060005260206000200160009055905550505050565b6000600161202a84610a6a565b612034919061338c565b905081600660008573ffffffffffffffffffffffffffffffffffffffff1673ffffffffffffffffffffffffffffffffffffffff168152602001908152602001600020600083815260200190815260200160002081905550806007600084815260200190815260200160002081905550505050565b6120b28383612188565b6120bf6000848484611765565b505050565b6120cf838383612281565b61218357600073ffffffffffffffffffffffffffffffffffffffff168373ffffffffffffffffffffffffffffffffffffffff160361214457806040517f7e27328900000000000000000000000000000000000000000000000000000000815260040161213b91906127eb565b60405180910390fd5b81816040517f177e802f00000000000000000000000000000000000000000000000000000000815260040161217a929190612f92565b60405180910390fd5b505050565b600073ffffffffffffffffffffffffffffffffffffffff168273ffffffffffffffffffffffffffffffffffffffff16036121fa5760006040517f64a0ae920000000000000000000000000000000000000000000000000000000081526004016121f191906125c4565b60405180910390fd5b60006122088383600061134b565b9050600073ffffffffffffffffffffffffffffffffffffffff168173ffffffffffffffffffffffffffffffffffffffff161461227c5760006040517f73c6ac6e00000000000000000000000000000000000000000000000000000000815260040161227391906125c4565b60405180910390fd5b505050565b60008073ffffffffffffffffffffffffffffffffffffffff168373ffffffffffffffffffffffffffffffffffffffff161415801561233957508273ffffffffffffffffffffffffffffffffffffffff168473ffffffffffffffffffffffffffffffffffffffff1614806122fa57506122f98484610fd4565b5b8061233857508273ffffffffffffffffffffffffffffffffffffffff16612320836112c9565b73ffffffffffffffffffffffffffffffffffffffff16145b5b90509392505050565b50805461234e90612bae565b6000825580601f10612360575061237f565b601f01602090049060005260206000209081019061237e9190612382565b5b50565b5b8082111561239b576000816000905550600101612383565b5090565b6000604051905090565b600080fd5b600080fd5b60007fffffffff0000000000000000000000000000000000000000000000000000000082169050919050565b6123e8816123b3565b81146123f357600080fd5b50565b600081359050612405816123df565b92915050565b600060208284031215612421576124206123a9565b5b600061242f848285016123f6565b91505092915050565b60008115159050919050565b61244d81612438565b82525050565b60006020820190506124686000830184612444565b92915050565b600081519050919050565b600082825260208201905092915050565b60005b838110156124a857808201518184015260208101905061248d565b60008484015250505050565b6000601f19601f8301169050919050565b60006124d08261246e565b6124da8185612479565b93506124ea81856020860161248a565b6124f3816124b4565b840191505092915050565b6000602082019050818103600083015261251881846124c5565b905092915050565b6000819050919050565b61253381612520565b811461253e57600080fd5b50565b6000813590506125508161252a565b92915050565b60006020828403121561256c5761256b6123a9565b5b600061257a84828501612541565b91505092915050565b600073ffffffffffffffffffffffffffffffffffffffff82169050919050565b60006125ae82612583565b9050919050565b6125be816125a3565b82525050565b60006020820190506125d960008301846125b5565b92915050565b6125e8816125a3565b81146125f357600080fd5b50565b600081359050612605816125df565b92915050565b60008060408385031215612622576126216123a9565b5b6000612630858286016125f6565b925050602061264185828601612541565b9150509250929050565b600080fd5b600080fd5b7f4e487b7100000000000000000000000000000000000000000000000000000000600052604160045260246000fd5b61268d826124b4565b810181811067ffffffffffffffff821117156126ac576126ab612655565b5b80604052505050565b60006126bf61239f565b90506126cb8282612684565b919050565b600067ffffffffffffffff8211156126eb576126ea612655565b5b6126f4826124b4565b9050602081019050919050565b82818337600083830152505050565b600061272361271e846126d0565b6126b5565b90508281526020810184848401111561273f5761273e612650565b5b61274a848285612701565b509392505050565b600082601f8301126127675761276661264b565b5b8135612777848260208601612710565b91505092915050565b60008060408385031215612797576127966123a9565b5b60006127a585828601612541565b925050602083013567ffffffffffffffff8111156127c6576127c56123ae565b5b6127d285828601612752565b9150509250929050565b6127e581612520565b82525050565b600060208201905061280060008301846127dc565b92915050565b60008060006060848603121561281f5761281e6123a9565b5b600061282d868287016125f6565b935050602061283e868287016125f6565b925050604061284f86828701612541565b9150509250925092565b60006020828403121561286f5761286e6123a9565b5b600061287d848285016125f6565b91505092915050565b600081519050919050565b600082825260208201905092915050565b6000819050602082019050919050565b6128bb81612520565b82525050565b60006128cd83836128b2565b60208301905092915050565b6000602082019050919050565b60006128f182612886565b6128fb8185612891565b9350612906836128a2565b8060005b8381101561293757815161291e88826128c1565b9750612929836128d9565b92505060018101905061290a565b5085935050505092915050565b6000602082019050818103600083015261295e81846128e6565b905092915050565b61296f81612438565b811461297a57600080fd5b50565b60008135905061298c81612966565b92915050565b600080604083850312156129a9576129a86123a9565b5b60006129b7858286016125f6565b92505060206129c88582860161297d565b9150509250929050565b6000602082840312156129e8576129e76123a9565b5b600082013567ffffffffffffffff811115612a0657612a056123ae565b5b612a1284828501612752565b91505092915050565b600067ffffffffffffffff821115612a3657612a35612655565b5b612a3f826124b4565b9050602081019050919050565b6000612a5f612a5a84612a1b565b6126b5565b905082815260208101848484011115612a7b57612a7a612650565b5b612a86848285612701565b509392505050565b600082601f830112612aa357612aa261264b565b5b8135612ab3848260208601612a4c565b91505092915050565b60008060008060808587031215612ad657612ad56123a9565b5b6000612ae4878288016125f6565b9450506020612af5878288016125f6565b9350506040612b0687828801612541565b925050606085013567ffffffffffffffff811115612b2757612b266123ae565b5b612b3387828801612a8e565b91505092959194509250565b60008060408385031215612b5657612b556123a9565b5b6000612b64858286016125f6565b9250506020612b75858286016125f6565b9150509250929050565b7f4e487b7100000000000000000000000000000000000000000000000000000000600052602260045260246000fd5b60006002820490506001821680612bc657607f821691505b602082108103612bd957612bd8612b7f565b5b50919050565b7f4f776e61626c653a2063616c6c6572206973206e6f7420746865206f776e6572600082015250565b6000612c15602083612479565b9150612c2082612bdf565b602082019050919050565b60006020820190508181036000830152612c4481612c08565b9050919050565b7f56697374694e46543a2055524920736574206f66206e6f6e6578697374656e7460008201527f20746f6b656e0000000000000000000000000000000000000000000000000000602082015250565b6000612ca7602683612479565b9150612cb282612c4b565b604082019050919050565b60006020820190508181036000830152612cd681612c9a565b9050919050565b60008190508160005260206000209050919050565b60006020601f8301049050919050565b600082821b905092915050565b600060088302612d3f7fffffffffffffffffffffffffffffffffffffffffffffffffffffffffffffffff82612d02565b612d498683612d02565b95508019841693508086168417925050509392505050565b6000819050919050565b6000612d86612d81612d7c84612520565b612d61565b612520565b9050919050565b6000819050919050565b612da083612d6b565b612db4612dac82612d8d565b848454612d0f565b825550505050565b600090565b612dc9612dbc565b612dd4818484612d97565b505050565b5b81811015612df857612ded600082612dc1565b600181019050612dda565b5050565b601f821115612e3d57612e0e81612cdd565b612e1784612cf2565b81016020851015612e26578190505b612e3a612e3285612cf2565b830182612dd9565b50505b505050565b600082821c905092915050565b6000612e6060001984600802612e42565b1980831691505092915050565b6000612e798383612e4f565b9150826002028217905092915050565b612e928261246e565b67ffffffffffffffff811115612eab57612eaa612655565b5b612eb58254612bae565b612ec0828285612dfc565b600060209050601f831160018114612ef35760008415612ee1578287015190505b612eeb8582612e6d565b865550612f53565b601f198416612f0186612cdd565b60005b82811015612f2957848901518255600182019150602085019450602081019050612f04565b86831015612f465784890151612f42601f891682612e4f565b8355505b6001600288020188555050505b505050505050565b6000606082019050612f7060008301866125b5565b612f7d60208301856127dc565b612f8a60408301846125b5565b949350505050565b6000604082019050612fa760008301856125b5565b612fb460208301846127dc565b9392505050565b7f56697374694e46543a204275726e206f66206e6f6e6578697374656e7420746f60008201527f6b656e0000000000000000000000000000000000000000000000000000000000602082015250565b6000613017602383612479565b915061302282612fbb565b604082019050919050565b600060208201905081810360008301526130468161300a565b9050919050565b7f4e487b7100000000000000000000000000000000000000000000000000000000600052603260045260246000fd5b7f4e487b7100000000000000000000000000000000000000000000000000000000600052601160045260246000fd5b60006130b682612520565b91507fffffffffffffffffffffffffffffffffffffffffffffffffffffffffffffffff82036130e8576130e761307c565b5b600182019050919050565b7f56697374694e46543a205472616e73666572206f6620746f6b656e207468617460008201527f206973206e6f74206f776e000000000000000000000000000000000000000000602082015250565b600061314f602b83612479565b915061315a826130f3565b604082019050919050565b6000602082019050818103600083015261317e81613142565b9050919050565b7f56697374694e46543a2055524920717565727920666f72206e6f6e657869737460008201527f656e7420746f6b656e0000000000000000000000000000000000000000000000602082015250565b60006131e1602983612479565b91506131ec82613185565b604082019050919050565b60006020820190508181036000830152613210816131d4565b9050919050565b7f4f776e61626c653a206e6577206f776e657220697320746865207a65726f206160008201527f6464726573730000000000000000000000000000000000000000000000000000602082015250565b6000613273602683612479565b915061327e82613217565b604082019050919050565b600060208201905081810360008301526132a281613266565b9050919050565b600081519050919050565b600082825260208201905092915050565b60006132d0826132a9565b6132da81856132b4565b93506132ea81856020860161248a565b6132f3816124b4565b840191505092915050565b600060808201905061331360008301876125b5565b61332060208301866125b5565b61332d60408301856127dc565b818103606083015261333f81846132c5565b905095945050505050565b600081519050613359816123df565b92915050565b600060208284031215613375576133746123a9565b5b60006133838482850161334a565b91505092915050565b600061339782612520565b91506133a283612520565b92508282039050818111156133ba576133b961307c565b5b92915050565b7f4e487b7100000000000000000000000000000000000000000000000000000000600052603160045260246000fdfea2646970667358221220b396e20d3f4b4fc2d6f677c9849f40d56488c904e3c3c29e4b229528f94a572764736f6c63430008130033",
  "immutableReferences": {},
  "source": "// SPDX-License-Identifier: MIT\r\npragma solidity ^0.8.19;\r\n\r\n// import \"./token/ERC721/ERC721.sol\";\r\nimport \"./token/ERC721/extensions/ERC721Enumerable.sol\";\r\nimport \"./access/Ownable.sol\";\r\nimport \"@openzeppelin/contracts/utils/Counters.sol\";\r\n/**\r\n * PJT  -  2) NFT Creator \r\n *         .\r\n */\r\ncontract VistiNFT is ERC721Enumerable, Ownable {\r\n\r\n    using Counters for Counters.Counter;\r\n    Counters.Counter private _tokenIds;\r\n    mapping(uint256 => string) private _tokenURIs;\r\n\r\n    constructor() ERC721(\"VistiNFT\", \"VST\") {\r\n\r\n    }\r\n\r\n    function current() public view returns (uint256) {\r\n        return _tokenIds.current();\r\n    }\r\n\r\n    function _exists(uint256 tokenId) internal view returns (bool) {\r\n        return bytes(_tokenURIs[tokenId]).length > 0;\r\n    }\r\n\r\n    function tokenURI(uint256 tokenId) public view override returns (string memory) {\r\n        require(_exists(tokenId), \"VistiNFT: URI query for nonexistent token\");\r\n        return _tokenURIs[tokenId];\r\n    }\r\n\r\n    function setTokenURI(uint256 tokenId, string memory _tokenURI) public onlyOwner {\r\n        require(_exists(tokenId), \"VistiNFT: URI set of nonexistent token\");\r\n        _tokenURIs[tokenId] = _tokenURI;\r\n    }\r\n\r\n\r\n    event Created(uint256 tokenId);\r\n    function create(string memory _tokenURI) public onlyOwner returns (uint256) {\r\n        _tokenIds.increment();\r\n        uint256 newTokenId = _tokenIds.current();\r\n        _safeMint(owner(), newTokenId);\r\n        _tokenURIs[newTokenId] = _tokenURI;\r\n        \r\n        emit Created(newTokenId);\r\n\r\n        return newTokenId;\r\n    }\r\n\r\n    function burn(uint256 tokenId) public onlyOwner {\r\n        require(_exists(tokenId), \"VistiNFT: Burn of nonexistent token\");\r\n        \r\n        // Remove the token URI\r\n        delete _tokenURIs[tokenId];\r\n        \r\n        // Burn the token\r\n        _burn(tokenId);\r\n    }\r\n\r\n    function transfer(address to, uint256 tokenId) public {\r\n        require(ownerOf(tokenId) == msg.sender, \"VistiNFT: Transfer of token that is not own\");\r\n        safeTransferFrom(msg.sender, to, tokenId);\r\n    }\r\n\r\n    function tokensOfOwner(address owner) public view returns (uint256[] memory) {\r\n        uint256 tokenCount = balanceOf(owner);\r\n        uint256[] memory ownedTokens = new uint256[](tokenCount);\r\n        for (uint256 i = 0; i < tokenCount; i++) {\r\n            ownedTokens[i] = tokenOfOwnerByIndex(owner, i);\r\n        }\r\n        return ownedTokens;\r\n    }\r\n\r\n}",
  "sourcePath": "C:\\Users\\SSAFY\\Documents\\S09P22D102\\src\\smart-contract\\contracts\\VistiNFT.sol",
  "compiler": {
    "name": "solc",
    "version": "0.8.19+commit.7dd6d404.Emscripten.clang"
  },
  "schemaVersion": "3.4.16",
  "updatedAt": "2023-09-27T01:53:54.820Z",
  "networkType": "ethereum",
  "devdoc": {
    "errors": {
      "ERC721EnumerableForbiddenBatchMint()": [
        {
          "details": "Batch mint is not allowed."
        }
      ],
      "ERC721IncorrectOwner(address,uint256,address)": [
        {
          "details": "Indicates an error related to the ownership over a particular token. Used in transfers.",
          "params": {
            "owner": "Address of the current owner of a token.",
            "sender": "Address whose tokens are being transferred.",
            "tokenId": "Identifier number of a token."
          }
        }
      ],
      "ERC721InsufficientApproval(address,uint256)": [
        {
          "details": "Indicates a failure with the `operator`s approval. Used in transfers.",
          "params": {
            "operator": "Address that may be allowed to operate on tokens without being their owner.",
            "tokenId": "Identifier number of a token."
          }
        }
      ],
      "ERC721InvalidApprover(address)": [
        {
          "details": "Indicates a failure with the `approver` of a token to be approved. Used in approvals.",
          "params": {
            "approver": "Address initiating an approval operation."
          }
        }
      ],
      "ERC721InvalidOperator(address)": [
        {
          "details": "Indicates a failure with the `operator` to be approved. Used in approvals.",
          "params": {
            "operator": "Address that may be allowed to operate on tokens without being their owner."
          }
        }
      ],
      "ERC721InvalidOwner(address)": [
        {
          "details": "Indicates that an address can't be an owner. For example, `address(0)` is a forbidden owner in EIP-20. Used in balance queries.",
          "params": {
            "owner": "Address of the current owner of a token."
          }
        }
      ],
      "ERC721InvalidReceiver(address)": [
        {
          "details": "Indicates a failure with the token `receiver`. Used in transfers.",
          "params": {
            "receiver": "Address to which tokens are being transferred."
          }
        }
      ],
      "ERC721InvalidSender(address)": [
        {
          "details": "Indicates a failure with the token `sender`. Used in transfers.",
          "params": {
            "sender": "Address whose tokens are being transferred."
          }
        }
      ],
      "ERC721NonexistentToken(uint256)": [
        {
          "details": "Indicates a `tokenId` whose `owner` is the zero address.",
          "params": {
            "tokenId": "Identifier number of a token."
          }
        }
      ],
      "ERC721OutOfBoundsIndex(address,uint256)": [
        {
          "details": "An `owner`'s token query was out of bounds for `index`. NOTE: The owner being `address(0)` indicates a global out of bounds index."
        }
      ]
    },
    "events": {
      "Approval(address,address,uint256)": {
        "details": "Emitted when `owner` enables `approved` to manage the `tokenId` token."
      },
      "ApprovalForAll(address,address,bool)": {
        "details": "Emitted when `owner` enables or disables (`approved`) `operator` to manage all of its assets."
      },
      "Transfer(address,address,uint256)": {
        "details": "Emitted when `tokenId` token is transferred from `from` to `to`."
      }
    },
    "kind": "dev",
    "methods": {
      "approve(address,uint256)": {
        "details": "See {IERC721-approve}."
      },
      "balanceOf(address)": {
        "details": "See {IERC721-balanceOf}."
      },
      "getApproved(uint256)": {
        "details": "See {IERC721-getApproved}."
      },
      "isApprovedForAll(address,address)": {
        "details": "See {IERC721-isApprovedForAll}."
      },
      "name()": {
        "details": "See {IERC721Metadata-name}."
      },
      "owner()": {
        "details": "Returns the address of the current owner."
      },
      "ownerOf(uint256)": {
        "details": "See {IERC721-ownerOf}."
      },
      "renounceOwnership()": {
        "details": "Leaves the contract without owner. It will not be possible to call `onlyOwner` functions anymore. Can only be called by the current owner. NOTE: Renouncing ownership will leave the contract without an owner, thereby removing any functionality that is only available to the owner."
      },
      "safeTransferFrom(address,address,uint256)": {
        "details": "See {IERC721-safeTransferFrom}."
      },
      "safeTransferFrom(address,address,uint256,bytes)": {
        "details": "See {IERC721-safeTransferFrom}."
      },
      "setApprovalForAll(address,bool)": {
        "details": "See {IERC721-setApprovalForAll}."
      },
      "supportsInterface(bytes4)": {
        "details": "See {IERC165-supportsInterface}."
      },
      "symbol()": {
        "details": "See {IERC721Metadata-symbol}."
      },
      "tokenByIndex(uint256)": {
        "details": "See {IERC721Enumerable-tokenByIndex}."
      },
      "tokenOfOwnerByIndex(address,uint256)": {
        "details": "See {IERC721Enumerable-tokenOfOwnerByIndex}."
      },
      "tokenURI(uint256)": {
        "details": "See {IERC721Metadata-tokenURI}."
      },
      "totalSupply()": {
        "details": "See {IERC721Enumerable-totalSupply}."
      },
      "transferFrom(address,address,uint256)": {
        "details": "See {IERC721-transferFrom}."
      },
      "transferOwnership(address)": {
        "details": "Transfers ownership of the contract to a new account (`newOwner`). Can only be called by the current owner."
      }
    },
    "version": 1
  },
  "userdoc": {
    "kind": "user",
    "methods": {},
    "notice": "PJT  -  2) NFT Creator          .",
    "version": 1
  }
}